S01700004763634170706C69636174696F6E362E7372656356
S11300000C9434000C9451000C9451000C94510045
S11300100C9451000C9451000C9451000C94510018
S11300200C9451000C9451000C9451000C94510008
S11300300C9451000C9451000C940B010C9451003D
S11300400C9451000C9451000C944B010C945100ED
S11300500C9451000C9451000C9451000C945100D8
S11300600C9451000C94510011241FBECFEFD8E022
S1130070DEBFCDBF11E0A0E0B1E0ECECF2E002C0E5
S113008005900D92A230B107D9F721E0A2E0B1E0CA
S113009001C01D92A930B207E1F70E9453000C94ED
S11300A064010C94000088E60E942F010E9439012B
S11300B00E943F010E9445010E9471000E94D900E4
S11300C00E94D9000E94C60078948091020188237E
S11300D0E1F383E00E9478000E94A30010920201E1
S11300E0F4CF80E480937C0087E880937A000895BD
S11300F08770ECE7F0E09081987F892B8083EAE7B2
S1130100F0E080818064808380917A0086FDFCCF5A
S113011080917800909179000895809580930801EA
S113012008952FEF30E0281B310930938B00209382
S11301308A0008952FEF30E0281B3109309389009D
S11301402093880008959C01369527953695279528
S113015090910001973461F0923519F09234A9F42A
S11301600EC020930501809105010E948D00089521
S113017020930401809104010E949100089520932A
S11301800301809103010E949A00089580E00E9477
S11301908D0080E00E94910080E00E949A00089502
S11301A082E084BD93E095BD92E197BD80936E009B
S11301B0089584B1866284B981EA809380008AE0DC
S11301C0809381000E94D00084B1806284B9089534
S11301D08091060190910701019690930701809305
S11301E006018F3F910529F020F01092070110922B
S11301F006018091080190E02091060130910701E9
S11302002817390720F485B1806285B9089585B12E
S11302108F7D85B908951F920F920FB60F92112406
S11302202F933F934F935F936F937F938F939F93FA
S1130230AF93BF93EF93FF930E94E800FF91EF9178
S1130240BF91AF919F918F917F916F915F914F91EA
S11302503F912F910F900FBE0F901F901895109201
S1130260C10096E09093C2001092C5008093C40030
S11302700895E1ECF0E08081886080830895E1ECEA
S1130280F0E08081806180830895E1ECF0E080817A
S11302908068808308951F920F920FB60F921124E5
S11302A08F938091C600823521F0873411F0823417
S11302B029F48093000181E0809302018F910F90D3
S10F02C00FBE0F901F901895F894FFCF0C
S10502CC4200EA
S9030000FC
